:100000000C9435000C945D000C945D000C945D0024
:100010000C945D000C945D000C945D000C945D00EC
:100020000C945D000C945D000C945D000C945D00DC
:100030000C945D000C945D000C945D000C945D00CC
:100040000C9482010C945D000C94B5030C94E703AE
:100050000C945D000C945D000C945D000C945D00AC
:100060000C945D000C945D00170411241FBECFEFAB
:10007000D8E0DEBFCDBF11E0A0E0B1E0E2E5F1E104
:1000800002C005900D92A838B107D9F722E0A8E880
:10009000B1E001C01D92A936B207E1F710E0CAE64F
:1000A000D0E004C02297FE010E94A308C836D10701
:1000B000C9F70E945B040C94A7080C94000040ED63
:1000C00057E060E070E08CE891E00E94E90020E0F9
:1000D00031EE40E050E06CEC71E08CE891E00E9481
:1000E000FC008CE891E00E94E60060E071E0809105
:1000F000BD019091BE010E94A8046AE070E080E01A
:1001000090E00E94FB0141E060E08CE891E00E94F9
:10011000670126E040E051EE60E070E08CEC91E099
:100120000C945303CF93DF938CEC91E00E94700208
:100130001816190604F5C8E8D1E08CEC91E00E948D
:100140008902899381E0CC38D807B9F740918801BA
:100150005091890160918A0170918B0122E030E019
:100160008CEC91E00E944D0668E873E180E090E03D
:100170000E94FB01D9CFDF91CF9108950F931F9378
:10018000CF93DF93EC01662359F00E94CC01698381
:100190007A838B839C83DF91CF911F910F91089578
:1001A0000E94CC0109811A812B813C81601B710B5B
:1001B000820B930B693171058105910530F763E07E
:1001C00070E080E090E00E94FB01EACF60E00C94D8
:1001D000BE00FC0113AA14AA15AA16AA1182128243
:1001E00013821482411551056105710521F0CB017F
:1001F000BA010C94FB010895FB01BA01A901DC01CD
:10020000D296FC93EE93D19726E0CF010C94530342
:100210001F93CF93DF93EC01162F62E171E089A960
:100220009AA90E94A8044AE050E0612F89A99AA9DE
:100230000E945B0569E171E089A99AA90E94A8045E
:1002400062E370E080E090E0DF91CF911F910C9429
:10025000FB011F93CF93DF93EC01162F8D81882331
:1002600089F189A99AA9DC01ED91FC910480F581BD
:10027000E02D0995892BA9F307C02637310519F11F
:100280002835310509F41D8289A99AA9DC01ED916F
:10029000FC910480F581E02D09951816190694F457
:1002A00089A99AA9DC01ED91FC910680F781E02DE6
:1002B00009959C01332723363105F9F6612FCE01CC
:1002C0000E94080183E6DF91CF911F9108950F935B
:1002D0001F93CF93DF931F92CDB7DEB78C016623B8
:1002E00049F081E0F801858360E0C80149830E94FC
:1002F00029014981F80145830F90DF91CF911F912A
:100300000F9108951F920F920FB60F9211242F9301
:100310003F938F939F93AF93BF938091C40190912C
:10032000C501A091C601B091C7013091C30123E07E
:10033000230F2D3720F40196A11DB11D05C026E81D
:10034000230F0296A11DB11D2093C3018093C40108
:100350009093C501A093C601B093C7018091C801D5
:100360009091C901A091CA01B091CB010196A11D44
:10037000B11D8093C8019093C901A093CA01B093A5
:10038000CB01BF91AF919F918F913F912F910F9092
:100390000FBE0F901F9018952FB7F8946091C4016D
:1003A0007091C5018091C6019091C7012FBF08953A
:1003B0003FB7F8948091C8019091C901A091CA01FA
:1003C000B091CB0126B5A89B05C02F3F19F001962F
:1003D000A11DB11D3FBF6627782F892F9A2F620F6D
:1003E000711D811D911D42E0660F771F881F991FA7
:1003F0004A95D1F708958F929F92AF92BF92CF9274
:10040000DF92EF92FF926B017C010E94D8014B01B9
:100410005C01C114D104E104F104F1F00E945F0613
:100420000E94D801681979098A099B09683E7340BE
:100430008105910570F321E0C21AD108E108F108A5
:1004400088EE880E83E0981EA11CB11CC114D10453
:10045000E104F10429F7DDCFFF90EF90DF90CF901A
:10046000BF90AF909F908F900895789484B58260EC
:1004700084BD84B5816084BD85B5826085BD85B548
:10048000816085BDEEE6F0E0808181608083E1E8F7
:10049000F0E010828081826080838081816080832F
:1004A000E0E8F0E0808181608083E1EBF0E0808132
:1004B00084608083E0EBF0E0808181608083EAE704
:1004C000F0E080818460808380818260808380818D
:1004D000816080838081806880831092C10008954C
:1004E000FC01818D228D90E0805C9F4F821B9109E1
:1004F0008F7399270895FC01918D828D981731F0A3
:10050000828DE80FF11D858D90E008958FEF9FEFAC
:100510000895FC01918D828D981761F0828DDF0125
:10052000A80FB11D5D968C91928D9F5F9F73928FE6
:1005300090E008958FEF9FEF08958DE094E0892B70
:1005400049F080E090E0892B29F00E940D04811190
:100550000C9400000895FC01848DDF01A80FB11DEB
:10056000A35ABF4F2C91848D90E001968F739927E9
:10057000848FA689B7892C93A089B1898C918064D6
:100580008C93938D848D981306C00288F389E02D97
:1005900080818F7D80830895CF93DF93EC01888DD8
:1005A0008823C9F0EA89FB89808185FD05C0A88977
:1005B000B9898C9186FD0FC00FB607FCF5CF8081FD
:1005C00085FFF2CFA889B9898C9185FFEDCFCE0147
:1005D0000E94AB02E7CFDF91CF910895CF92DF92D7
:1005E000FF920F931F93CF93DF931F92CDB7DEB788
:1005F0006C0181E0D60158968C9358975B969C913C
:100600005B975C968C915C97981307C05096ED9120
:10061000FC915197808185FD2EC0F601038D10E07D
:100620000F5F1F4F0F731127F02EF601848DF81204
:1006300011C00FB607FCF9CFD6015096ED91FC9191
:100640005197808185FFF1CFC60169830E94AB027B
:100650006981EBCF838DE80FF11DE35AFF4F608373
:10066000D6015B960C935B975296ED91FC91539754
:10067000808180620CC0D6015696ED91FC9157970F
:1006800060835096ED91FC915197808180648083C6
:1006900081E090E00F90DF91CF911F910F91FF903B
:1006A000DF90CF900895BF92CF92DF92EF92FF92AA
:1006B000CF93DF93EC016A017B01B22EE889F989BF
:1006C00082E08083411581EE580761057105A1F034
:1006D00060E079E08DE390E0A70196010E947F0839
:1006E000215031094109510956954795379527956C
:1006F000211580E1380798F0E889F989108260E8CF
:1007000074E88EE190E0A70196010E947F082150D5
:100710003109410951095695479537952795EC853B
:10072000FD853083EE85FF852083188EEC89FD8959
:10073000B082EA89FB89808180618083EA89FB89B4
:10074000808188608083EA89FB89808180688083DA
:10075000EA89FB8980818F7D8083DF91CF91FF9033
:10076000EF90DF90CF90BF9008951F920F920FB639
:100770000F9211242F938F939F93EF93FF93E09108
:10078000DC01F091DD018081E091E201F091E30173
:1007900082FD12C090818091E5018F5F8F7320915F
:1007A000E601821751F0E091E501F0E0E453FE4FDD
:1007B000958F8093E50101C08081FF91EF919F911A
:1007C0008F912F910F900FBE0F901F9018951F9231
:1007D0000F920FB60F9211242F933F934F935F9375
:1007E0006F937F938F939F93AF93BF93EF93FF93F9
:1007F0008CEC91E00E94AB02FF91EF91BF91AF9121
:100800009F918F917F916F915F914F913F912F9128
:100810000F900FBE0F901F9018958CEC91E00E94E6
:10082000700221E0892B09F420E0822F08951092B4
:10083000CF011092CE0188EE93E0A0E0B0E080936B
:10084000D0019093D101A093D201B093D3018EE651
:1008500091E09093CD018093CC0185EC90E0909352
:10086000D9018093D80184EC90E09093DB018093D0
:10087000DA0180EC90E09093DD018093DC0181EC63
:1008800090E09093DF018093DE0182EC90E0909302
:10089000E1018093E00186EC90E09093E301809386
:1008A000E2011092E5011092E6011092E701109228
:1008B000E801089508950E9435020E945A040E949A
:1008C0005F00CDE9D2E00E9492002097E1F30E9400
:1008D0009D02F9CFCF92DF92EF92FF920F931F9379
:1008E000CF93DF937C016A01EB0100E010E00C156F
:1008F0001D0571F06991D701ED91FC910190F08196
:10090000E02DC7010995892B19F00F5F1F4FEFCF1D
:10091000C801DF91CF911F910F91FF90EF90DF9071
:10092000CF9008956115710581F0DB010D900020D5
:10093000E9F7AD0141505109461B570BDC01ED9120
:10094000FC910280F381E02D099480E090E008950D
:100950000C949204DC01ED91FC910190F081E02D6A
:1009600009946FE171E00C9492048F929F92AF9280
:10097000BF92DF92EF92FF920F931F93CF93DF937B
:10098000CDB7DEB7A1970FB6F894DEBF0FBECDBFCF
:100990007C01F42FD52ECB0119A2223008F42AE0D5
:1009A0008E010F5D1F4F822E912CA12CB12C6F2F29
:1009B0007D2DA50194010E947F08F22FD32ECA013C
:1009C000015011096A3014F4E0E301C0E7E3E60FD7
:1009D000D801EC93232B242B252B49F7B801C70111
:1009E0000E949204A1960FB6F894DEBF0FBECDBF51
:1009F000DF91CF911F910F91FF90EF90DF90BF900B
:100A0000AF909F908F900895CF92DF92EF92FF92D8
:100A10000F931F93CF93DF93EC016A017B012115A4
:100A2000310579F4E881F9810190F081E02D642F9E
:100A3000DF91CF911F910F91FF90EF90DF90CF90BA
:100A400009942A303105E9F477FF1AC06DE20E945B
:100A5000AA048C0144275527BA014C195D096E0977
:100A60007F092AE0CE010E94B504800F911FDF911B
:100A7000CF911F910F91FF90EF90DF90CF9008954D
:100A80002AE0B701A601CE01DF91CF911F910F910E
:100A9000FF90EF90DF90CF900C94B50421153105B5
:100AA00041F4DC01ED91FC910190F081E02D642F87
:100AB00009940C94B5049A01462F50E060E070E070
:100AC0000C944E054F925F926F927F928F929F92FD
:100AD000AF92BF92CF92DF92EF92FF920F931F934C
:100AE000CF93DF93EC016A017B01B22E9A01AB0137
:100AF000C701B6010E947B08882319F06AE771E0FC
:100B000027C026013701E89477F82FEF3FEF4FE732
:100B10005FE7C301B2010E947B0881110DC02FEF76
:100B20003FEF4FE75FE7C301B2010E94C506181609
:100B30001CF46EE771E00CC02FEF3FEF4FE75FE46E
:100B4000C701B6010E9414081816ACF462E871E0FF
:100B5000CE01DF91CF911F910F91FF90EF90DF9029
:100B6000CF90BF90AF909F908F907F906F905F904D
:100B70004F900C9492042FEF3FEF4FE75FECC701CB
:100B8000B6010E94C50687FDE1CF20E030E0A90153
:100B9000C701B6010E94C50687FF0AC06DE2CE01FB
:100BA0000E94AA048C01F7FAF094F7F8F09402C0BE
:100BB00000E010E0A12C60E070E080E09FE3AB1467
:100BC00041F020E030E040E251E40E94C906A394E5
:100BD000F6CF9B01AC01C701B6010E9461066B0113
:100BE0007C010E9436072B013C010E9462079B0199
:100BF000AC01C701B6010E9460066B017C012AE0CE
:100C0000B301A201CE010E94B504080F191FBB2039
:100C100039F066E871E0CE010E949204080F191FB6
:100C20007B2C772041F120E030E040E251E4C70125
:100C3000B6010E9418086B017C010E9431074B012C
:100C4000AA2497FCA094BA2C2AE030E0B501A401B4
:100C5000CE010E940405080F191FC501B4010E94AE
:100C600064079B01AC01C701B6010E9460066B01DD
:100C70007C017A94D6CFC801DF91CF911F910F915B
:100C8000FF90EF90DF90CF90BF90AF909F908F90AC
:100C90007F906F905F904F9008950F931F93CF9325
:100CA000DF93EC010E9462058C01CE010E94B10429
:100CB000800F911FDF91CF911F910F91089508959B
:100CC0005058BB27AA270ED075C166D130F06BD122
:100CD00020F031F49F3F11F41EF45BC10EF4E09557
:100CE000E7FB51C1E92F77D180F3BA176207730789
:100CF0008407950718F071F49EF58FC10EF4E09506
:100D00000B2EBA2FA02D0B01B90190010C01CA01C5
:100D1000A0011124FF27591B99F0593F50F4503E70
:100D200068F11A16F040A22F232F342F4427585F62
:100D3000F3CF469537952795A795F0405395C9F77A
:100D40007EF41F16BA0B620B730B840BBAF0915032
:100D5000A1F0FF0FBB1F661F771F881FC2F70EC0D1
:100D6000BA0F621F731F841F48F4879577956795A4
:100D7000B795F7959E3F08F0B3CF9395880F08F08D
:100D80009927EE0F979587950895D9D008F481E0BB
:100D900008950CD00FC107D140F0FED030F021F4FF
:100DA0005F3F19F0F0C0511139C1F3C014D198F36D
:100DB0009923C9F35523B1F3951B550BBB27AA27DC
:100DC00062177307840738F09F5F5F4F220F331F4E
:100DD000441FAA1FA9F333D00E2E3AF0E0E830D01A
:100DE00091505040E695001CCAF729D0FE2F27D01D
:100DF000660F771F881FBB1F261737074807AB07EB
:100E0000B0E809F0BB0B802DBF01FF2793585F4F5F
:100E10002AF09E3F510568F0B6C000C15F3FECF379
:100E2000983EDCF3869577956795B795F7959F5F24
:100E3000C9F7880F911D9695879597F90895E1E078
:100E4000660F771F881FBB1F621773078407BA07D7
:100E500020F0621B730B840BBA0BEE1F88F7E09532
:100E6000089504D06894B111D9C00895BCD088F019
:100E70009F5790F0B92F9927B751A0F0D1F0660F86
:100E8000771F881F991F1AF0BA95C9F712C0B130A1
:100E900081F0C3D0B1E00895C0C0672F782F8827B4
:100EA000B85F39F0B93FCCF3869577956795B395E0
:100EB000D9F73EF490958095709561957F4F8F4F4F
:100EC0009F4F0895E89409C097FB3EF49095809554
:100ED000709561957F4F8F4F9F4F9923A9F0F92F00
:100EE00096E9BB279395F695879577956795B7957E
:100EF000F111F8CFFAF4BB0F11F460FF1BC06F5F64
:100F00007F4F8F4F9F4F16C0882311F096E911C075
:100F1000772321F09EE8872F762F05C0662371F096
:100F200096E8862F70E060E02AF09A95660F771FAA
:100F3000881FDAF7880F9695879597F90895990F86
:100F40000008550FAA0BE0E8FEEF16161706E80793
:100F5000F907C0F012161306E407F50798F0621BB4
:100F6000730B840B950B39F40A2661F0232B242B89
:100F7000252B21F408950A2609F4A140A6958FEFA8
:100F8000811D811D089597F99F6780E870E060E0FA
:100F900008959FEF80EC089500240A941616170612
:100FA00018060906089500240A941216130614065A
:100FB00005060895092E0394000C11F4882352F0BD
:100FC000BB0F40F4BF2B11F460FF04C06F5F7F4F75
:100FD0008F4F9F4F089557FD9058440F551F59F05C
:100FE0005F3F71F04795880F97FB991F61F09F3F16
:100FF00079F087950895121613061406551FF2CF3F
:101000004695F1DF08C0161617061806991FF1CF8E
:1010100086957105610508940895E894BB276627B5
:101020007727CB0197F908958ADF08F48FEF0895A9
:101030000BD0C0CFB1DF28F0B6DF18F0952309F050
:10104000A2CFA7CF1124EACFC6DFA0F3959FD1F39B
:10105000950F50E0551F629FF001729FBB27F00D66
:10106000B11D639FAA27F00DB11DAA1F649F6627BB
:10107000B00DA11D661F829F2227B00DA11D621F0A
:10108000739FB00DA11D621F839FA00D611D221FC4
:10109000749F3327A00D611D231F849F600D211DA8
:1010A000822F762F6A2F11249F5750408AF0E1F04B
:1010B00088234AF0EE0FFF1FBB1F661F771F881F94
:1010C00091505040A9F79E3F510570F05CCFA6CFDC
:1010D0005F3FECF3983EDCF3869577956795B7957F
:1010E000F795E7959F5FC1F7FE2B880F911D9695A9
:1010F000879597F9089523DF880B990B0895A1E24E
:101100001A2EAA1BBB1BFD010DC0AA1FBB1FEE1F81
:10111000FF1FA217B307E407F50720F0A21BB30BCC
:10112000E40BF50B661F771F881F991F1A9469F748
:1011300060957095809590959B01AC01BD01CF01A4
:101140000895EE0FFF1F0590F491E02D0994F89497
:02115000FFCFCF
:10115200564D4450565F317C315F564D4450560DCA
:101162000A00564D4450435F005F564D4450430DB4
:101172000A004572726F723A20417474656D707420
:1011820020746F20736574206120726561642D6F15
:101192006E6C79207661726961626C65206F722073
:1011A200646174612074797065206E6F7420737548
:1011B20070706F727465640D0A0000000000EE0228
:1011C2006A04700289027B02CC026E616E00696E53
:0811D20066006F7666002E0036
:00000001FF
